:100000000C9446000C9465000C9465000C946500FB
:100010000C9465000C9465000C9465000C946500CC
:100020000C9465000C9465000C9465000C946500BC
:100030000C9465000C9465000C9465000C946500AC
:100040000C9465000C9465000C9465000C9465009C
:100050000C9465000C9465000C9465000C9465008C
:100060000C9465000C9465000C9465000C9465007C
:100070000C9465000C9465000C9465000C9465006C
:100080000C9465000C9465000C94650011241FBE4F
:10009000CFEFD0E4DEBFCDBF11E0A0E0B1E0E8ECEF
:1000A000F9E000E00BBF02C007900D92A632B10745
:1000B000D9F721E0A6E2B1E001C01D92AB33B2074F
:1000C000E1F70E94D4040C94E2040C940000109216
:1000D00031011092300110922F0110922E011092D6
:1000E0002D0110922C0110922B0110922A018FEFFA
:1000F0008093240191E09093230110922901809331
:10010000220110922801109227011092260182E00C
:10011000809305018093040183E080930101809323
:10012000000108958091350190913601823091054A
:1001300071F128F4009749F0019771F04AC08330BB
:10014000910561F1049789F144C081E090E09093BA
:100150003601809335013DC08091340180FF07C096
:1001600082E090E0909336018093350132C081FFA8
:1001700007C083E090E0909336018093350129C059
:1001800081E090E0909336018093350122C084E0B5
:1001900090E090933601809335011BC084E090E09D
:1001A000909336018093350114C080913001909175
:1001B0003101843C994039F481E090E0909336011C
:1001C0008093350106C084E090E0909336018093DF
:1001D000350180913501909136018230910579F099
:1001E00018F4019739F008958330910581F0049750
:1001F000B1F008951092310110923001089580916C
:1002000005018530A8F48F5F8093050108958091E2
:100210000501882369F0815080930501089580913C
:10022000300190913101019690933101809330011A
:1002300008958091390190913A018230910539F108
:1002400028F4009749F0019771F043C0833091057D
:1002500029F1049751F13DC081E090E090933A017B
:100260008093390136C08091340182FF07C082E05B
:1002700090E090933A01809339012BC083FF29C00D
:1002800083E090E090933A018093390122C084E0AA
:1002900090E090933A01809339011BC084E090E094
:1002A00090933A018093390114C080912E0190916E
:1002B0002F01843C994039F481E090E090933A0119
:1002C0008093390106C084E090E090933A018093D6
:1002D00039018091390190913A0182309105B1F054
:1002E00028F4009749F0019761F008958330910553
:1002F000A9F00497D9F0089510922F0110922E01C1
:10030000089510922F0110922E01089580910401FA
:100310008530A8F48F5F80930401089580910401D3
:10032000882369F0815080930401089580912E0103
:1003300090912F01019690932F0180932E010895A3
:1003400080913201909133018130910579F038F03C
:100350008230910549F1039709F447C070C081E0EC
:1003600090E0909333018093320169C080912A011B
:1003700090912B01803127E2920739F081E090E0E3
:1003800090933301809332015AC08031974209F033
:1003900056C010922B0110922A0182E090E09093B7
:1003A0003301809332014BC010922B0110922A012D
:1003B00080910001811108C081E080932701109293
:1003C0003301109232013BC0873041F481E08093C9
:1003D0002601109233011092320131C083E090E087
:1003E00090933301809332012AC080912C01909127
:1003F0002D01803D974039F083E090E090933301E8
:10040000809332011CC010922D0110922C0180911A
:100410002601882329F010923301109232010FC077
:1004200080912701882329F0109233011092320124
:1004300006C082E090E09093330180933201809176
:100440003201909133018130910509F458C040F098
:100450008230910509F461C0039709F4F4C108954D
:1004600080912601811118C090912701911114C02B
:100470008FEF809324011092230184E08093010187
:100480008093000183E08093050180930401109222
:1004900026011092270108958823B1F081E080930E
:1004A00024011092230184E08093010182E0809373
:1004B000000183E08093050180930401809128016D
:1004C0008F5F80932801089580912701882309F484
:1004D000C3C18FEF809324011092230184E08093A5
:1004E000010185E08093000183E080930501809302
:1004F0000401809122018F5F809322010895109260
:1005000026011092270180912A0190912B010196DA
:1005100090932B0180932A01089510922B01109241
:100520002A012091230180910101820F8093010112
:100530003091000190912401930F909300013FEFBF
:10054000380F363018F0219520932301923008F0AF
:10055000BFC081110AC08091050181117DC181E078
:1005600080932401809323010895813099F4809130
:100570000501811106C081E08093240110922301BE
:100580000895813009F068C1809324018FEF809332
:10059000230108958230D9F480910501811106C0AC
:1005A00081E080932401809323010895813029F410
:1005B00080932401109223010895823009F04CC1E8
:1005C00081E0809324018FEF80932301089583308D
:1005D000D9F480910501813029F48093240180931E
:1005E00023010895823031F481E080932401109238
:1005F00023010895833009F02FC181E08093240105
:100600008FEF8093230108958430E1F480910501F8
:10061000823031F481E08093240180932301089596
:10062000833031F481E080932401109223010895F6
:10063000843009F011C181E0809324018FEF809311
:10064000230108958530E1F480910501833031F470
:1006500081E080932401809323010895843031F454
:1006600081E080932401109223010895853009F0E0
:10067000F3C081E0809324018FEF809323010895DC
:100680008630A1F480910501843031F481E08093BB
:100690002401109223010895853009F0DDC081E026
:1006A000809324018FEF809323010895873061F4B4
:1006B00080910501853009F0CFC081E0809324014D
:1006C0008FEF80932301089581E08093270108959F
:1006D000963008F4C1C081110AC0809104018111D3
:1006E000BBC08FEF80932401809323010895813054
:1006F00099F480910401811106C08FEF8093240149
:10070000109223010895813009F0A6C08FEF8093E5
:1007100024018093230108958230E1F48091040143
:10072000811107C08FEF8093240181E08093230122
:100730000895813031F48FEF8093240110922301CA
:100740000895823009F088C08FEF80932401809350
:10075000230108958330E1F480910401813039F45C
:100760008FEF8093240181E08093230108958230EC
:1007700031F48FEF80932401109223010895833088
:1007800009F06AC08FEF80932401809323010895BC
:100790008430E1F480910401823039F48FEF80934A
:1007A000240181E0809323010895833031F48FEF99
:1007B00080932401109223010895843009F04CC0E5
:1007C0008FEF809324018093230108958530D9F41D
:1007D00080910401833039F48FEF8093240181E00C
:1007E000809323010895843031F48FEF80932401A6
:1007F000109223010895853079F58FEF80932401BD
:10080000809323010895863091F48091040184300F
:1008100031F48FEF809324011092230108958530E5
:10082000D9F48FEF809324018093230108958730BA
:1008300099F480910401853079F48FEF809324013D
:1008400080932301089580912C0190912D010196B0
:1008500090932D0180932C01089580913701909100
:1008600038018130910571F030F08230910589F0C6
:100870000397B1F01BC081E090E090933801809322
:10088000370114C082E090E09093380180933701E3
:100890000DC083E090E0909338018093370106C04B
:1008A00081E090E090933801809337018091370187
:1008B000909138018230910581F083309105C1F02B
:1008C000019721F5E0910501F0E0E45EFE4F8081A3
:1008D00085B98091030182B90895E0910401F0E0A7
:1008E000EA5EFE4F808185B98091020182B9089548
:1008F000E0910101F0E0E25FFE4F808185B9E09177
:100900000001F0E0EA5FFE4F808182B90895809196
:100910002801813019F488B1816088B9809128015B
:10092000823019F488B1846088B9809128018330BD
:1009300051F488B1876088B9109228011092220181
:1009400081E090E0089580912201813019F488B10E
:10095000806188B980912201823019F488B1806366
:1009600088B980912201833051F488B1876088B9B9
:10097000109228011092220181E090E008958FEFFB
:100980009FEF0895809334010E9492000E94190104
:100990000E94A0010E942D040E948704019619F074
:1009A00018B80E94670008958FEF81B912B884B912
:1009B00015B887B918B81AB88BB989B180950E9453
:0809C000C204FBCFF894FFCF45
:1009C8000303FE7F0202FEFDFBF7EFDFBF7F01029C
:1009D800040810204080070E1C3870E0070E1C38F1
:0609E80070E0FFFFFF00BC
:00000001FF
